:020000040800F2
:10000000D8280020250800082D0800082F0800081F
:100010003108000833080008350800080000000017
:10002000000000000000000000000000790100084E
:100030003908000800000000F10100082D02000846
:100040003F0800083F0800083F0800083F08000874
:100050003F0800083F0800083F0800083F08000864
:100060003F0800083F0800083F0800083F08000854
:100070003F0800083F0800083F0800083F08000844
:100080003F0800083F0800083F0800083F08000834
:100090003F0800083F0800083F0800083F08000824
:1000A0003F0800083F0800083F0800083F08000814
:1000B0003F0800083F0800083F0800083F08000804
:1000C0003F0800083F0800083F0800083F080008F4
:1000D0003F0800083F0800083F0800083F080008E4
:1000E0003F0800083F0800083F080008DFF81CD060
:1000F00000F064FC00F042FD0021034800F092FD96
:1001000000F04EFDFEE70000C41B0008D8280020C8
:1001100080F309887047EFF309807047684680F3E1
:10012000098804480078C00714BF0220032080F328
:1001300014887047B01B0008DFF818C0EFF3058380
:100140001B0618BF6047EFF31483DB0708BF604747
:1001500000DF7047CB0C0008DFF818C0EFF3058311
:100160001B0618BF6047EFF31483DB0708BF604727
:1001700000DF7047B10E0008EFF30980816911F8C4
:10018000021CF1B990E80F10E047EFF3098C8CE8FE
:100190000700144B93E8060091420FD039B12CE9C7
:1001A000F00FC1F828C00CB401F076F90CBC1A604D
:1001B000D2F828C0BCE8F00F8CF309886FF0020E6B
:1001C000704710B5084A1268914209D8074C54F894
:1001D000214090E80F10A047EFF3098C8CE80F0046
:1001E00010BD00003C000020E0090008E009000804
:1001F00001F024F80C4B93E80600914210D0EFF385
:10020000098C2CE9F00FC1F828C00CB401F044F9B6
:100210000CBC1A60D2F828C0BCE8F00F8CF3098837
:100220006FF0020E704700003C00002001F0FCF966
:10023000E0E7000000F048FD01F0F6F9DAE7000021
:10024000B448016841F0010101604168B24A1140BF
:1002500041600168B14A11400160016821F48021C8
:100260000160416821F4FE0141604FF41F0181608B
:100270007047A8490A6822F480320A600A6822F4AA
:1002800080220A60B0F5803F07D0B0F5802F03D1FF
:10029000086840F4A02008607047086840F4803087
:1002A000086070470346002059099A4A01290AD07C
:1002B00002290AD0516A03F01F02012393400B4226
:1002C00000D0012070471168F5E7116AF3E718B50F
:1002D000002000904FF4A0643120FFF7E3FF009965
:1002E000491C00910099A14201D00028F4D031208E
:1002F000FFF7D8FF08B1012018BD002018BD854ABE
:10030000116821F0F80141EAC0001060704784498B
:10031000086070477F4B5A6822F47C1208431043F0
:10032000586070477E49086670477A4A516821F0E4
:1003300003010143516070477648406800F00C00AB
:100340007047744A516821F0F001014351607047D1
:10035000704A516821F4E0610143516070476D4A71
:10036000516821F4605141EAC00050607047694A09
:10037000002903D0517A014351727047517A814369
:10038000517270476649D83108607047614A5168B8
:1003900021F440410143516070475E490022203101
:1003A0000A7001F82029012805D0042802D105206F
:1003B00081F820007047012081F8200070475949DA
:1003C0000860704753490A6A02430A6270475549F8
:1003D00044390860704710B54E4A516801F00C016D
:1003E000514B002927D0042927D0082927D00360A2
:1003F000516801F0F00109094C4B5C5C0168E14077
:100400004160546804F4E064240A1C5D21FA04F499
:100410008460546804F46054E40A1B5DD940C160F0
:10042000526802F44042920B404B1B1F9A5CB1FB96
:10043000F2F1016110BD0360DAE70360D8E75168AB
:1004400001F47011536803F48033022404EB9141EA
:1004500033B153689B0307D5354B59430160C7E758
:10046000334B59430160C3E72F4B59430160BFE74A
:10047000284A002903D051690143516170475169ED
:10048000814351617047234A002903D09169014398
:100490009161704791698143916170471D4A0029BC
:1004A00003D0D1690143D1617047D1698143D161E2
:1004B0007047184A002903D0D1680143D1607047C2
:1004C000D1688143D1607047124A002903D0116975
:1004D00001431161704711698143116170471149EE
:1004E0004039086070470E49C86470470949C871AF
:1004F00070470848416A41F0807141627047014687
:100500000020044A92680A4200D001207047014945
:1005100088727047001002400000FFF8FFFFF6FEEF
:10052000000042428004424200127A00040000208F
:1005300000093D0010B59C49884209D101210420E1
:10054000FFF7B7FF0021BDE810400420FFF7B1BF5F
:100550009649884209D101210820FFF7AAFF00210E
:10056000BDE810400820FFF7A4BF9149884209D197
:1005700001211020FFF79DFF0021BDE81040102051
:10058000FFF797BF8B49884209D101212020FFF74F
:1005900090FF0021BDE810402020FFF78ABF864968
:1005A000884209D101214020FFF783FF0021BDE8E7
:1005B00010404020FFF77DBF8049884209D10121CA
:1005C0008020FFF776FF0021BDE810408020FFF774
:1005D00070BF7B4988420AD1841501212046FFF76C
:1005E00068FF2046BDE810400021FFF762BF10BD44
:1005F00010B501210846FFF75CFF0021BDE810405F
:100600000120FFF756BF2DE9F0410022CC7804F01D
:100610000F03E40601D58C7823430C784FF00F07C5
:1006200014F0FF0F4FF0010C1CD005680CFA02F417
:100630000E882640A64211D1960007FA06F825EA50
:10064000080503FA06F848EA0505CE78282E02D0F8
:10065000482E02D002E0446100E00461521C082AE6
:10066000E4D305600A88FF2A1ED94568002202F1FA
:1006700008060CFA06F40E882640A64210D1960011
:1006800007FA06F825EA080503FA06F848EA050518
:10069000CE78282E00D14461CE78482E00D1046156
:1006A000521C082AE3D34560BDE8F0814FF6FF7184
:1006B0000180022181700421C17070470246002030
:1006C00092680A4200D001207047806880B270476B
:1006D00002460020D2680A4200D001207047C0685C
:1006E00080B270470161704741617047002A01D0B4
:1006F0000161704741617047C160704741F48032C9
:1007000082618161826181698069704710B52D4B7A
:100710001A684FF68074224042EA001008431860BD
:1007200010BD2949C8617047F0B5264C002801DA90
:10073000E36900E06368C0F30346420D120185B22D
:10074000C0F301579540032F07D0C2020CD50322F6
:10075000B240934343F0706209E023F07062636833
:1007600023F07063636002E0AB4343F0706201B159
:100770002A43002801DAE261F0BD6260F0BD10B5E5
:100780008A07120F0F23934021F003040D492144DF
:100790008C689C438C608B68904003438B6010BDD9
:1007A0000949DC310860704700080140000C014035
:1007B000001001400014014000180140001C0140DD
:1007C00000200140000001400000204208B5012146
:1007D0000820FFF758FE2020ADF8000003208DF818
:1007E000020010208DF8030069460948FFF70BFF4F
:1007F00008BDFFF7EBFF064C4FF4FA750C34216887
:1008000081F020012160284600F0ACF9F7E70000F4
:10081000000C014010B5FFF7ECFF002010BDFEE713
:10082000FEE700000648804706480047FEE7FEE76F
:10083000FEE7FEE7FEE7FEE7FEE7FEE7FEE7FEE790
:10084000F1080008ED0000080CB5002201920092AA
:100850005248016841F4803101604FF4A06301689F
:1008600001F4003100910199491C0191009911B9DD
:1008700001999942F3D10168890302D501210091C0
:1008800000E000920099012930D145490A6842F000
:1008900010020A600A6822F003020A600A6842F045
:1008A00002020A604168416041684160416841F468
:1008B00080614160416821F47C114160416841F4EC
:1008C000E8114160016841F08071016001688901AF
:1008D000FCD5416821F003014160416841F002010B
:1008E00041604168C1F381010229FAD10CBDABE737
:1008F00010B52A48016841F0010101604168294AA8
:10090000114041600168284A11400160016821F4EA
:1009100080210160416821F4FE0141604FF41F0114
:100920008160FFF7E4FF21494FF00060086010BDCF
:1009300010B51A4A506800F00C011D4B1D480029E3
:100940000ED004290ED008290ED003605168194A30
:10095000C1F30311121D515C0268CA40026010BD50
:100960000360F3E70360F1E7516801F47011536825
:1009700003F48033022404EB914133B153689B03A9
:1009800007D50D4B59430160E0E70B4B594301601C
:10099000DCE7074B59430160D8E700000010024034
:1009A000002002400000FFF8FFFFF6FE08ED00E027
:1009B00000127A002000002000093D00064C074D7F
:1009C00006E0E06840F0010394E80700984710341F
:1009D000AC42F6D3FFF78EFB001C0008201C000879
:1009E0000000000002E008C8121F08C1002AFAD166
:1009F00070477047002001E001C1121F002AFBD19F
:100A0000704710B5002A06DA22F00042D21D22F00B
:100A10000703102203E0D21C22F003030C2213B1BF
:100A20009C188C4201D9012010BD0244014483600E
:100A3000C0E90021C91AD018884202D810600246C5
:100A4000F9E70020106010BD08480068C0010BD510
:100A500007480068C00707D00548803800680028AC
:100A600002DA04490120087070470000FCED00E044
:100A7000800E00E0500000204FF06042D36F002B4A
:100A8000FCD0036BD367D36F002BFCD0C07840EA57
:100A90000120A2F87C0070474FF06041CA6F002A25
:100AA000FCD081F87C0070470EB5802200B109B1FE
:100AB00010460AE001780129FAD101A900F020F8D6
:100AC000042801D0002000E01020DDE9011203B06D
:100AD00000BD70B50D46040003D012B9207801287E
:100AE00001D0802070BD204600F0A2FA28B129462E
:100AF000204600F030F8002070BD812070BD00005D
:100B000010B504468089002824D0608904EB800059
:100B100000690860606840B16078022805D1002152
:100B2000204600F0D9FB00F0C7FB04F10C0000BF29
:100B3000D0E85F1F491E8AB2C0E8512F0029F7D1C3
:100B40006089401C80B26081E189884201D1002027
:100B50006081042010BD10B500F0BEFBBDE8104060
:100B600000F0AABBEFF3058109B182207047DFF8DE
:100B700008C000DF7047000041190008EFF305804E
:100B800008B182207047EFF31480C00703D0DFF86C
:100B90000CC000DF704700F0DDBE000055190008F2
:100BA00088B0EFF3058010B1822008B07047EFF3F2
:100BB000148010F00301134806D001291BD002292C
:100BC00011D0032919D113E008A981F3098800780D
:100BD000C0070BD05FF0020080F31488BFF34F8F83
:100BE000BFF36F8F09E00078C00706D10320F3E759
:100BF0000078C00701D0FF20D7E7DFF80CC000DF86
:100C0000D3E70000B01B0008C5190008EFF3058208
:100C10000AB1FFF749BFDFF808C000DF70470000E6
:100C2000311A0008EFF305820AB100207047EFF394
:100C30001482D20702D1044A52781AB1DFF80CC0EC
:100C400000DF704700F012BF340000206D1A00086A
:100C5000DFF80CC000DFDFF80CC000DFFEE70000AB
:100C6000D91A0008F51A0008DFF804C000DF704741
:100C70002D1B0008094C4FF0FF3529462068FFF76F
:100C8000C5FF02460846102AF7D1FFF7EDFF0028FE
:100C9000F3D0024608469047EFE700001C00002012
:100CA000074801684FF0E020416100218161072180
:100CB00001610448016841F07F41016040177047BD
:100CC000AC1B000820ED00E0704750E8001F31B178
:100CD0000B6840E80032002AF7D108467047BFF39E
:100CE0002F8FFAE710B568B161B10B3121F0030223
:100CF000016844680B1A1B1B934205D20846096819
:100D00000029F5D1002010BD210007D0211803686B
:100D1000C1E90032016001F1080010BD42600830F5
:100D200010BD000070B50D46002812D04FF6FF71BF
:100D3000084C884204D222680146104600F0FAFAB4
:100D400020684570044800F0DDF8BDE8704000F010
:100D5000B5BB70BD3C000020A82400200F4810B592
:100D60000D4942680E480B680068934204D00A603F
:100D7000CB88421E1A448A808A8880B282420AD175
:100D800000200860054800F0BDF80146BDE81040AD
:100D9000024800F0F3BA10BD54000020A82400203F
:100DA0004C00002070B5194DE86800282CD0A88AA6
:100DB000401EA882002621E0A06838B16168416029
:100DC000606810B1A16881606660A6600F48214626
:100DD000183800F0D3FAA08AA8826078042804D1D9
:100DE0000B49E08A09880844A08201206070E0680D
:100DF000E860E06808B10561E6602661A88A00281D
:100E000002D1EC68002CD7D170BD0000C0240020B6
:100E10004C00002070B504000FD00D4DA1780126C4
:100E20002868827891420CD900F0C4FA286846708C
:100E30002046BDE8704000F041BB064800F062F873
:100E4000F7E766702146BDE87040024800F096BAA8
:100E50003C000020A82400200321FFF763BF00000E
:100E600010B50446008B084320836278618B062A04
:100E700018D0052A19D1084217D001EA000262836E
:100E800088432083204600F0C0FA01206070628B06
:100E90000821204600F0B5FA2146BDE8104003487D
:100EA00000F06CBA31EA0002EAD010BDA82400209C
:100EB000814202D342688A4201D801207047026809
:100EC0000A60BFF35F8F50E8003F0A689A42F6D18C
:100ED00040E80012002AF2D10020704768B161B1E9
:100EE0000022083902E00246006830B18842FAD197
:100EF0002AB100681060002070470120704700216F
:100F00004160F8E70146406842684A600B78002279
:100F1000022B05D0012B03D0032B01D04260704778
:100F200043680BB19960426082607047810700D0CE
:100F30000020704770B5044600201546207001223D
:100F40006270A17084F824106060A060E06020618D
:100F50002062A082E0822083608384F82500E08CF8
:100F600018B90548FFF7B1FEE06229462046BDE802
:100F7000704000F01DB800002802002008B10829C8
:100F800001D2012070470144091F002201600A605C
:100F90004260104670470000034800210160034989
:100FA0000988C1807047000054000020A81B000879
:100FB00070B5C28C1C4D930802D12A88C2F38D03F0
:100FC000C26A02EB8302540700D5121F4FF08074EF
:100FD00042E9021400242646B2F1400242F824609D
:100FE000641C0E2CFAD3C4691462826201632968FE
:100FF000C90014D5112B12D94FF0FF31103B11EB62
:1010000053014FF0CC3305D042F8043C42F8083D80
:10101000491EF9D1C16A121F8A4200D91360C06A01
:101020000249016070BD0000A41B0008A52E5AE211
:10103000C1898089081A704701220270002242701B
:101040008270426002814281103982818908C181A7
:10105000704700002DE9F041044640680E464FF00D
:10106000000804F10C05E8B36078012701283ED0A0
:10107000022813D003285CD10846FFF726FE05009E
:1010800057D02046FFF73EFF0446294600F0B6F948
:101090006770204600F0B9F9214621E02046FFF7AD
:1010A00031FF0646002100F0A9F92189F06904EB1F
:1010B00081010861D5E85F0F401C81B2C5E8501F6F
:1010C0000028F7D12089401C80B22081E189884224
:1010D00001D1A4F808807770304600F096F93146C7
:1010E000174800E00CE0BDE8F04100F047B92046A9
:1010F000FFF708FF04463246102100F082F9C7E7E7
:10110000A089E189884216D2208904EB800006611B
:10111000D5E85F0F401C81B2C5E8501F0028F7D109
:101120002089401C80B22081E189884201D1A4F845
:101130000880BDE8F081BDE8F0410320FFF770BBF7
:10114000A824002070B50446808915460026C0B347
:10115000608904EB8000006908606089401C80B2EF
:101160006081E189884200D16681606810B1607851
:1011700002280BD014F10C04D4E85F0F401E81B29A
:10118000C4E8501F0028F7D1002070BD2046FFF7AB
:10119000B9FE0546002100F031F92189E86904EB28
:1011A000810108612089401C80B22081E189884248
:1011B00000D12681284600F028F92846FFF72AFEAC
:1011C000E2E7FFE73DB10B48626801682AB12046BB
:1011D00000F0D4F808E0012070BD616001684E6045
:1011E000006884600120607008212846FFF79AFD9E
:1011F000F1E700003C000020002814D0411C13D06F
:101200000C4A4FF6FE7190420CD800EB4002C2EB44
:10121000C0120948036803EBC202521EB2FBF3F08E
:10122000884204D9084670474FF6FF70704780B275
:101230007047000000093D00BC1B000870B51B484A
:10124000012102685170006800F0B4F8184D6C7804
:1012500018E000BF05EBC40148680278EAB1012A32
:1012600020D000F0FFF8E878641C844200D100240C
:101270000F48801CD0E84F1F491EC9B2C0E8421F6A
:10128000002AF7D1A8780028E4D16C700948FFF74C
:1012900039FEBDE8704000F011B9098989B2FFF745
:1012A000DFFDE0E78968FFF7D5FEDCE73C000020C2
:1012B000D0230020A82400200548017811B1012185
:1012C0004170704703494FF080500860704700003C
:1012D0004400002004ED00E0F0B4154DAB1CEE78A6
:1012E0004FEA0507D3E84F2FB24202D1BFF32F8F49
:1012F00011E0521CD4B2C3E8424F002AF2D100BF21
:10130000D7E84F2F541CB44200D10024E4B2C7E800
:10131000434F002BF4D1EB78934205D905EBC20281
:10132000C2E90101F0BC7047F0BC0220FFF778BAB7
:10133000D0230020104A10B5D368ABB113469B8A66
:1013400003E08CB12246A48A2344D4688B42F8D3AC
:10135000C460D0600261C46804B12061591A8182FE
:10136000908A401A908210BD0024C460D060C91ACF
:1013700002619182848210BDC024002030B50278C1
:101380000023022A03D0012A01D0032A00D101231D
:101390008C7800E01046426812B19578A542F9D2E7
:1013A0004A6041601BB102B19160886030BD00208D
:1013B000FBE7000003494A684260002282604860FF
:1013C00070470000A824002010B5836804462BB99C
:1013D000607801280ED1084B03E09B68187800283C
:1013E000FBD0204600F026F82146BDE81040184604
:1013F000FFF7C4BF10BD0000A8240020806A01626E
:101400007047806AC0E90812704710B50169002969
:101410000ED0C268CA60C36800223BB18B8A848A3E
:1014200023448B82C3681961C26000E08A82026132
:1014300010BD0000816839B142684A6041680029E6
:1014400001D0806888607047054906E04A6882429A
:1014500002D140684860704711460029F6D17047B4
:10146000A824002010B5416881B1FFF74BFD044668
:10147000FFF7CBFF0120607001462046FFF7BEFF5B
:101480002146BDE810400348FFF778BF4188491C5A
:10149000418010BDA824002006480068D0E90A1049
:1014A000814203D300680449884202D00120FFF73B
:1014B000B7B970473C000020A52E5AE20749022226
:1014C00048604270064A1278002A05D006C98A424E
:1014D00002D0C078FFF7E0BA704700003C0000205F
:1014E0005000002070B5FFF7AFFA00200446204AF4
:1014F000204902E042F82040401C0B889842F9D372
:101500001D48342201881D48FFF77BFA1C480088DB
:1015100080B240F000421B4801681B48FFF771FA97
:101520001A48082201881A480068FFF76AFA194D1C
:10153000FF20194AE870EC8400212846FFF7FAFCE6
:10154000164804210170446015480170C4600461AC
:10155000848214481549056002206870124804709E
:1015600044700978C170BDE87040FFF715BD0000F8
:1015700054240020A01B0008D41B00087C0000207D
:10158000A41B0008D81B000828020020FC1B000830
:1015900014000020742400201F080008A824002044
:1015A000C02400203C000020D0230020E01B0008C5
:1015B0001B4810B5016841F47F01016000684FF0DD
:1015C0007F4101EA00201649C0431439B0FA80F087
:1015D0000968C0F10800C1F30221814200D3481C10
:1015E0000F49091F0B686FF08072824063F3170286
:1015F0000A60FFF755FB0B49002808600EDB00F17D
:10160000E021FF2281F8002400F01F020121914017
:101610004009800000F1E020C0F8001110BD00007A
:1016200020ED00E0480000200C4810B502680121C0
:1016300051700068FFF7BEFEFFF790FB0848016895
:10164000491C0160FFF7AEFB00F07CFA0548FFF78C
:1016500059FCBDE81040FFF731BF00003C000020FE
:101660004C000020A8240020002805D0810702D1CA
:101670000178002900D000207047000030B50B4CE5
:101680000023626805E095688D4204D8134612680D
:10169000491B002AF7D10260816012B19568691A6E
:1016A00091600BB1186030BD606030BD3400002027
:1016B0002DE9F0411E46174680460D4611F0FF0FFA
:1016C00000D14D1C1848FFF700FB041E16D0280A55
:1016D000E762E084E9B242462046E661FFF72AFC71
:1016E00001251248124905E000EB850252F8042C4E
:1016F00032B16D1C0A889542F6D90020BDE8F08110
:10170000002DFAD000EB850040F8044C0948E57044
:10171000007818B101212046FFF7AEF92046FFF707
:1017200079FB2846EAE700007C00002054240020D2
:10173000A01B0008500000202DE9F05F584DDFF895
:101740005891DFF8588129684FF0010A002618B136
:10175000CA78AB46824243D14E70FEF7DCFC296862
:101760008862FFF799FE2868046A1FE06068C0B1CC
:101770002046FFF7C7FB07460021FFF73FFE38462C
:10178000FFF743FE87F801A039464648FFF7F6FD0C
:10179000E168A4F802A0A760386AE0603C620C46E9
:1017A00004E0E0686680A660E6600446002CDDD1B7
:1017B0002868C27808EB820141F8046CC16A3A4893
:1017C000FFF776FB2868C66299F8001011B1002176
:1017D000FFF752F935482968FFF76AFB2E6056E09B
:1017E0003349098888420CD808EB800858F8045C13
:1017F0003DB12846FFF71EFE2846FFF706FE2C6A7D
:1018000022E0FF20BDE8F09F6068C0B12046FFF7EE
:1018100079FB07460021FFF7F1FD3846FFF7F5FD9C
:1018200087F801A039461F48FFF7A8FDE168A4F832
:1018300002A0A760386AE0603C620C4604E0E06801
:101840006680A660E6600446002CDDD148F8046C92
:101850001548E96AFFF72CFBEE6299F8000018B111
:1018600000212846FFF708F929461048FFF720FB1A
:101870000C48DBF8001040688B7882789A4209D9CE
:1018800081F801A00748DBF80010FFF777FD002082
:10189000FFF7C0FA0020B5E75000002054240020D4
:1018A0003C000020A8240020280200207C0000200A
:1018B000A01B000870B51A4D80B11A4A12889042D8
:1018C0001FD8194A02EB800050F8044CCCB1A1702B
:1018D00084F824102868A04205D014E0286881709C
:1018E000286880F82410114840688078884215D90B
:1018F0000E482968FFF742FD296801204870002042
:101900000AE0FF2070BD2046FFF75EFD60780128E9
:1019100004D10648FFF7F6FAFFF77CFA002070BD05
:101920003C000020A01B000854240020A824002014
:1019300002480068002800D0C07870473C000020B2
:1019400010B5002804D0FFF757FCFFF785FA4020B8
:1019500010BD000010B5134C207860B91248400744
:1019600005D1124801681048FFF708FB08B185202F
:1019700010BDFFF7B7FD0E49FF2009688870207879
:1019800058B900210B4800F041F80B4908600021CC
:101990000A4800F06BF80A49086001202070002016
:1019A000607010BD34000020381E0020DC1B0008D1
:1019B0003C000020F41B00081C000020E41B000871
:1019C0001800002070B50F4D687808B1002070BD78
:1019D0000D4C206890F824100020FFF76BFF206862
:1019E000C178FF2903D1816A203181F309886168B8
:1019F00011B9606000202060FFF7DAFD01206870F7
:101A0000E4E70000340000203C00002010B5040092
:101A100005D0216819B1606808B102780AB10020C8
:101A200010BD8900103189B2FFF706FB606810BD58
:101A30003EB504000D464FF0800012D021780129F8
:101A40000FD12846FFF7D8FB0246204601A9FFF731
:101A500079FB012801D0102003E00DB1402000E007
:101A60000020DDE9011203B030BD000070B50E4664
:101A7000040029D0206838B3606810F1030F23DB1D
:101A8000032821DCE16829B11048FFF72BF9050094
:101A90001AD000E000256068E168001D40EA0121DD
:101AA00033462A462068FFF703FE40B1084901EBA0
:101AB0008000084950F8040C826A516370BD1DB162
:101AC00029460248FFF70AFA002070BD381E0020A0
:101AD00054240020510C000810B5FFF729FF0028FE
:101AE00004D0034901EB800050F8040C10BD000045
:101AF0005424002010B5FFF7B7FD18B1C18C19B1FF
:101B0000C46A02E0802010BD0024C078FFF714FEF4
:101B1000FF2806D01CB121460348FFF7DFF900205B
:101B200010BD812010BD0000381E002010B5FFF749
:101B3000FDF920B141690A680169104610BD002015
:101B4000014610BD2DE9F041134E7468002C1CD0E5
:101B5000A068124F401E4FF00108A06012E0254619
:101B600024687460002229463868FEF7B2FF10B17D
:101B70000420FEF755FE6879012808D085F8048016
:101B8000002C02D0A0680028E9D0BDE8F0812846EA
:101B9000E968FFF773FDF3E7340000201C00002024
:101BA0000800000000040201050001003F190100C7
:101BB000010000000200010052000400E8030000E0
:101BC00000000000150800080000000001000000EF
:101BD000C8000000AC010000101C000098050000C7
:101BE00010000000750C0008020000000100000059
:101BF000C8000000040000005C000020000000009D
:101C0000201C0008000000205C000000E40900081F
:101C10007C1C00085C0000207C280000F4090008FF
:101C2000020406080000000001020304010203048C
:101C30000607080900000000000000000000000086
:101C400000A24A040000000000000000010203049A
:101C50000607080900000000000000000000000066
:101C60000000000000000000000000000000000074
:0C1C700000000000000000000000000068
:04000005080000ED02
:00000001FF
